:0A0000000C9445000C9400000C94D1
:10000A0000000C9400000C9400000C9400000C9466
:10001A0000000C942E010C9400000C9400000C9427
:10002A0000000C9400000C9400000C9400000C9446
:10003A0000000C9400000C9400000C9400000C9436
:10004A0000000C9400000C94000000000000060060
:10005A0000000000303030300031323334003433A5
:10006A0032310031313131003133383000313338F7
:10007A0032000A00040054001D0060025E00000005
:10008A00F894EE27ECBBF1E0FBBFEBBFE5BF8DE0D8
:10009A00A2E0BB27ED938A95E9F780E098E0A0E615
:1000AA00ED930197E9F7ECE7F0E0859195910097D8
:1000BA0061F0A591B59105901590BF01F0010590E9
:1000CA000D920197E1F7FB01F0CFEFE5EDBFE8E014
:1000DA00EEBFC0E6D2E00C9470011A931AE0EFE783
:1000EA00E2BB93980E947702829903C011E3829B34
:1000FA00FECF819903C012E3819BFECF809903C092
:10010A0013E3809BFECF939A94980E947702829978
:10011A0003C014E3829BFECF819903C015E3819B40
:10012A00FECF809903C016E3809BFECF949A9598E0
:10013A000E947702829903C017E3829BFECF8199BE
:10014A0003C018E3819BFECF809903C019E3809B0B
:10015A00FECF959A96980E947702829903C01AE276
:10016A00829BFECF819903C010E3819BFECF8099C9
:10017A0003C013E2809BFECF969AE12F199108954E
:10018A00AA930E94F702A9850E947B021E2FA985C5
:10019A000E9481020E2FA8850E947B023E2FA8850D
:1001AA000E9481022E2FAF810E947B025E2FAF81B7
:1001BA000E9481024E2F062C072819F0EE81E030AA
:1001CA0079F0E12FE295E07FE02BE5BBE22FE295A3
:1001DA00E07FE32BEBBBE42FE295E07FE52BE8BB66
:1001EA000E94FE022A960895F501EC53FD4FBF01C5
:1001FA00D2010E948702EA50FD4FBF010E948F027E
:10020A000E948702E85DFC4FBF010E949602DB0153
:10021A00EC93D501A051BC4FE0912204E053EC933A
:10022A00D501A254BC4FE0912304E053EC93D501CD
:10023A00A457BC4FE0912404E053EC93D501A65A8D
:10024A00BC4FE0912504E053EC93F50131965F0130
:10025A0008950A921A92FA926A937A938A939A93CF
:10026A00AA93BA93EA93FA93EFB7EA93F201319613
:10027A002F01D2010E94B602A038E1E5BE07E1E0F3
:10028A008E07E0E09E0739F4E0E0F0E02F01E5BBDD
:10029A00E8BBEBBB12C0D201ECE3F0E00E94DB0248
:1002AA00EA930E948F02ECE3F0E00E94DB02EA93F9
:1002BA000E949602EA93A0E063DFE991EFBFF99109
:1002CA00E991B991A9919991899179916991F99055
:1002DA0019900990189520E0EFEFE4BBE7BBEABB61
:1002EA00E8EFE1BBE0E0EFBDECE0EEBDEAE7EBBD35
:1002FA00E2E1EABDE0E1E9BF7894E42DE5BBE8BBC1
:10030A00EBBBEFE7E2BBE9DE1E2F1A3269F4E1E04C
:10031A00DE2E6E2E7724EAEAE5BBE8BBEBBB20E0D3
:10032A00E0E0E0932204EFCF133209F04FC0E1E09E
:10033A00F0E03F01E2E0DE2E30E0F501A32FB0E06D
:10034A00AE17BF07F4F5EFEFE5BBE8BBEBBBACEDCF
:10035A00B5E00E94A802E32FF0E0E457FC4F0E94A8
:10036A00A102E65AFC4FE081EA2BEBBBE32FF0E057
:10037A00E051FC4F0E94A102E254FC4FE081EA2BBB
:10038A00E8BBEAEAE5BBA8EBBBE00E94A802E32FC0
:10039A00F0E0EC53FD4FE081EA93E32FF0E0EA50FE
:1003AA00FD4FE081EA93E32FF0E0E85DFC4FE08146
:1003BA00EA93A1E0E5DEA8EBBBE00E94A8023F5F5A
:1003CA00BCCFE0E0DE2E6E2E772469C01A3009F425
:1003DA0066C0243030F4E22FF0E0EE5DFB4F10836C
:1003EA002F5F243009F05BC0E22FF0E0EE5DFB4F97
:1003FA00A0E0A08320E0E1E0ED15E9F4E4E1F0E01B
:10040A008E169F06A4F4F401A5E0B0E00E94BB0298
:10041A00E05AFD4FFA93EA93A2E2B4E00E946A021C
:10042A00F40131964F01E0E0DE2E6E2E7724E0E0F3
:10043A00E093220468CF00E030E0F401A32FB0E09B
:10044A00AE17BF078CF4E2E2F4E0FA93EA93A5E070
:10045A003A9FF001E05AFD4FDF010E945602E03058
:10046A0009F401E03F5FE9CF003041F0BDDE979A21
:10047A00ACEDB5E00E94A80297980CC0E0E0E5BB9D
:10048A00EBBBEDEDE8BBE1E0F0E03F01A0EDB7E04A
:10049A000E94A80266247724E0E0E093220433CF86
:1004AA00FFCFBA93AA93E991F991A991B9916D9164
:1004BA007191671721F46623D1F7EE270895671B18
:1004CA00E1F3E1E008F4E2500895BA93AA93E991BE
:1004DA00F991A991B991CD0161916D936623E1F7E3
:1004EA00FC010895A3E0B0E00C94A802BB27EAE05F
:1004FA00F0E00E94DB020895B0E0EAE0F0E00E943A
:10050A00D6020895ECE3F0E00E94DB02DB01EC93F3
:10051A00F5010895D201ECE3F0E00E94D602DF0172
:10052A000895D201E0E1FEE00E94D602DF01E8E18F
:10053A00F0E00E94DB020895E081E295E07FAE2FB1
:10054A00E32FF0E00895109639F0A89580ED97E032
:10055A000197F1F71197C9F70895F195E195F040E0
:10056A0008958B2F880F880B982F0895FA9FF02DE6
:10057A00EB9FF00DEA9FE02DF10D08950024112460
:10058A0090E1AA0FBB1F001C111C0E1A1F0A18F4B7
:10059A000E0E1F1E01C0A1609A9599F7FD01D001A8
:1005AA00089512D0EBDF0EF4D8DF0895E894B7FF70
:1005BA0004C0A095B09511966894F7FDCEDFDEDFF2
:1005CA00FD010EF4CADF0895E894F7FF02C0C5DF03
:1005DA006894B7FF06C0A095B095119600F80394E9
:1005EA0000FA08955A934A933A932A931A930A93CC
:1005FA0008955D814C813B812A8119810881089582
:00000001FF
